:020000040800F2
:10000000480A00209D010008BD3F0008C9380008CB
:100010006D3F0008110800082D490008000000008D
:100020000000000000000000000000001542000871
:10003000B5080008000000008540000819420008CB
:10004000B7010008B7010008B7010008B7010008B0
:10005000B7010008B7010008B7010008B7010008A0
:10006000B7010008B7010008B70100089D080008A3
:10007000A9080008B7010008B7010008B701000887
:10008000B7010008B7010008B7010008B701000870
:1000900055080008B7010008B7010008B7010008BB
:1000A000B7010008B7010008B7010008B701000850
:1000B00031420008B701000800000000B701000845
:1000C000B70100080000000000000000B7010008B0
:1000D00000000000B7010008B7010008B7010008E0
:1000E000B7010008B7010008000000000000000090
:1000F0000000000000000000000000000000000000
:1001000000000000000000000000000000000000EF
:100110000000000000000000B7010008B70100085F
:1001200000000000000000000000000000000000CF
:1001300000000000000000000000000000000000BF
:10014000B7010008B701000800000000B70100086F
:10015000B7010008B7010008B7010008B70100089F
:10016000B7010008B701000800000000000000000F
:10017000000000000000000000000000000000007F
:1001800000000000B7010008DFF80CD000F0C2FA50
:1001900000480047D14B0008480A00200648804725
:1001A00006480047FEE7FEE7FEE7FEE7FEE7FEE75C
:1001B000FEE7FEE7FEE7FEE71D42000889010008B2
:1001C000D2B201E000F8012B491EFBD27047002299
:1001D000F6E710B513460A4604461946FFF7F0FF46
:1001E000204610BD421C10F8011B0029FBD1801ACB
:1001F00070472DE9FE4F804681EA0300C00F0C4690
:10020000009021F0004123F00045B8EB0200A94125
:1002100005D24046214690461C460B46024623F036
:100220000040104347D0270DC7F30A00C3F30A511B
:100230000290401A019040286BDAC3F3130040F497
:10024000801B0098924620B10023D2EB030A63EB97
:100250000B0B01985946C0F14002504600F0ABF933
:1002600006460D4650465946019A00F0B3F910EB88
:1002700008006141002487EA115284EAE7731A43B7
:1002800040D0009A62B3019A012A4FEA075215DC66
:10029000001B61EB02014FF0004202EA0752CDE978
:1002A0000042001C41F5801132462B4600F0B3F9A4
:1002B00003B0BDE8F08F40462146F9E7001B61EB33
:1002C0000201001C41F5801300185B412018A2F5C3
:1002D000001747EB030140EAD570B6196D4111E0F4
:1002E0006D084FEA360645EAC0754FEA0752001B13
:1002F00061EB0201001C41F5801149084FEA300012
:100300000019514132462B4603B0BDE8F04F00F0D2
:1003100073B90098012240000023D0EB020263EB86
:10032000E073009821464FEAE074B8EB000061EBFF
:100330000401E9E783F000435BE781F0004158E7FF
:100340002DE9FE4F81EA030404F0004421F000414E
:1003500000944FF0000B23F0004350EA01045ED0FC
:1003600052EA03045BD0C3F30A54C1F30A552C4488
:10037000A4F2F3340194A0FB0254C1F3130141F43D
:100380008011C3F3130343F4801301FB024400FB09
:10039000034E840A970A44EA815447EA8357A4FB30
:1003A000076802958D0A05FB07854FEA932C04FB2D
:1003B0000C542705029D4FEA065847EA1637B5EB5D
:1003C00008056EEB070C870E920E47EA811742EA8A
:1003D0008312A7FB0201B6EB0B0164EB00042B0DAB
:1003E00043EA0C335E1844EB1C50DA465146E7FBF7
:1003F0000201C5F313044FEA0B3343EA14534FEAE7
:100400000432019C43EA0603A4F10C040294009C0C
:10041000CDE900B400F0FFF803B0BDE8F08F002094
:100420000146F9E72DE9F04D81EA030404F0004BA1
:1004300021F0004514464FF0000A23F0004150EA35
:10044000050220D054EA01021DD0C5F30A57024626
:10045000C5F31303C1F31300C1F30A5640F480152A
:1004600043F48013A7EB0608101BD64608F2FD38AC
:1004700073EB050002D308F1010801E092185B411B
:10048000B8F1000F03DA00200146BDE8F08D00202E
:100490004FF48011064684460EE0171B73EB0507E8
:1004A00005D3121B63EB050306434CEA010C490814
:1004B0004FEA300092185B4150EA0107EDD152EA51
:1004C000030012D082EA040083EA0501084305D044
:1004D000101BAB4106D20122002306E000224FF0A0
:1004E000004302E06FF0010253101AEB06004CEBE0
:1004F000085110EB0A0041EB0B01BDE8F04D00F094
:100500007BB800F0004230F000400AD0C10D01F588
:100510006071C0F3160042EA0151C208400711435E
:10052000704700200146704730B50B460146002059
:100530002022012409E021FA02F59D4205D303FAA5
:1005400002F5491B04FA02F52844151EA2F1010226
:10055000F1DC30BD2DE9F05F0546002092469B4658
:1005600088460646814640241BE0284641464746C9
:10057000224600F0E7F853465A46C01A914110D37C
:1005800011461846224600F016F82D1A67EB0108AE
:100590004F4622460120002100F00DF817EB00091C
:1005A0004E41201EA4F10104DFDC484631462A46B4
:1005B0004346BDE8F09F202A04DB203A00FA02F10E
:1005C000002070479140C2F1200320FA03F3194341
:1005D00090407047202A06DBCB17203A41FA02F000
:1005E00043EAE07306E041FA02F3D040C2F1200290
:1005F000914008431946704710B5141E73F100046A
:1006000008DA401C41F1000192185B411A4301D104
:1006100020F0010010BD2DE9F04D92469B4611B12E
:10062000B1FA81F202E0B0FA80F220329046FFF790
:10063000C2FF04460F4640EA0A0041EA0B01534656
:100640005A46084313D0114653EA010019D0C8F1A5
:100650004002504600F076F805460E465046594690
:100660004246FFF7A8FF084305D0012004E02046DA
:100670003946BDE8F08D0020054346EAE0762C437C
:1006800037430A986305E40AA0EB08000022FD0A3C
:1006900044EA47540A3002D500200146E9E7010543
:1006A00010196941DDE9084500196941BDE8F04DBF
:1006B000A2E7C1F30A52C1F3130140F2FF3341F440
:1006C00080119A4202DA00200146704740F233431B
:1006D0009A42A2F2334202DC524200F033B8FFF7F2
:1006E0006ABF000030B5041E71F1000404DB4FF056
:1006F0000044404264EB0101141E73F1000405DB69
:100700001C464FF00043524263EB0403994208BF7A
:10071000904230BD1CB5094800900948019005463B
:10072000009C06E0E06840F0010394E80700984769
:100730001034AC42F6D3FFF72BFD0000D057000871
:10074000F0570008202A04DB203A21FA02F00021A9
:10075000704721FA02F3D040C2F1200291400843D1
:100760001946704730B58C1810F8012B12F00F03A2
:1007700001D110F8013B120906D110F8012B03E05A
:1007800010F8015B01F8015B5B1EF9D101E001F893
:10079000013B521EFBD1A142E6D3002030BD000038
:1007A0000146406A026C12F0500F03D0806B026B5E
:1007B000084610470168026C42F400720264C9687E
:1007C00011F4406F02D000F04DBB00BF417E002904
:1007D000F9D1016C21F480710164016CC90448BF36
:1007E00000F040BB016C41F00101016400F03ABB34
:1007F000406A016C41F040010164416C41F0040128
:10080000416400F033BB0000406A00F02DBB0000E3
:10081000FEE7000010B58AB040F2C024002001219C
:10082000C2F200040690CDE90400CDE90200CDE952
:100830000000CDE9071109906946204600F00CFE42
:10084000204601F01FF92046022100F0EDFD0AB01C
:1008500010BD000040F2C020C2F2000000F00ABF4C
:100860000A7802704A7842704A8852BA00EE102A1A
:10087000B8EEC00A80ED010A8A8852BA00EE102A4A
:10088000B8EEC00A80ED020AC98849BA00EE101A13
:10089000B8EEC00A80ED030A7047000040F268100D
:1008A000C2F2000001F02AB940F20C30C2F200009E
:1008B00001F024B970470000EFF3108072B600BF5A
:1008C000FEE70000F0B581B0044690F83C00012836
:1008D00002D1022001B0F0BD0D460127216884F845
:1008E0003C70886800F00300012813D10868C00735
:1008F00010D0886800F00D00012859D1886840F0B8
:10090000020088600320086001F0C2FA21688A684A
:10091000D2073FD1264646F8407F8868012D20F057
:100920008040886003D1886840F080408860886893
:1009300040F00040886001F0ABFA21688968B1F1AD
:10094000FF3F0BDD306820F00301002041F0010182
:100950003160002184F83C1001B0F0BD054602E092
:1009600080680028EED501F093FA411B20680B291E
:10097000F6D38168B1F1FF3FF2DC306840F010003F
:1009800020F0020030600120002184F83C1001B00A
:10099000F0BD00BF064602E08868C007BAD001F08B
:1009A00077FA801B21680328F6D38868C007F3D044
:1009B000206C264640F01000206456F8441F0120A9
:1009C000C4E70000F0B5026890F83C5040F2083CE3
:1009D0004FF0A043B2F1A04FC5F2000C08BFACF538
:1009E0000273012D04BF0220F0BD95686D0737D456
:1009F0004FF6005ECFF6FF7EB2F1A04F04BF4FF678
:100A0000006ECFF6FF7E5CF80E40640728D40C68B9
:100A1000DCF8005025F4604564B34E6890F83070FF
:100A200046EA47363543CCF80050956805F0030593
:100A3000012D02D11268D20736D15CF80E2002F0E7
:100A40000302012A02D11A68D2072DD1DCF8002056
:100A500040F61F7389689A431143214322E000BF87
:100A6000016C41F0200101640121002280F83C204A
:100A70000846F0BDCCF80050916801F0030101294F
:100A800002D11168C9070FD15CF80E1001F0030103
:100A9000012902D11968C90706D1DCF8001040F617
:100AA0001F729143CCF800100021002280F83C20F6
:100AB0000846F0BD2DE9F04181B00022009290F887
:100AC0003C20012A04D10221084601B0BDE8F08192
:100AD0000123026880F83C3093685B0700F1A28133
:100AE0004B68042B14D803EB4303146B5B001F25E6
:100AF000D1F800809D4024EA050508FA03F32B4352
:100B00001363936813F00C0F40F0D78043E000BFED
:100B1000092B17D803EB43036FF01D06556B06EB4B
:100B200043031F26D1F8008006FA03F4A54308FA10
:100B300003F32B435363936813F00C0F40F0BD8015
:100B400029E000BF03EB43060E2B4FEA460311D802
:100B5000956B3C3B1F26D1F8008006FA03F4A543B1
:100B600008FA03F32B439363936813F00C0F40F0E0
:100B7000A48010E0D56B5A3B1F26D1F8008006FAFE
:100B800003F4A54308FA03F32B43D363936813F0EC
:100B90000C0F40F0928008EB48031425B8F1090FC0
:100BA00088BF1E3B88BF1825545907268F689E4072
:100BB00024EA060607FA03F333435351D1E9043C10
:100BC000D468013B032B17D8062707EA94070CFAD1
:100BD00007FCDFE803F003313F4D00BF136E4FF217
:100BE0000007C0F2FF373B4043EA886343EA0C0347
:100BF00043F00043136660E0136E4FEA886C03F025
:100C0000F843634542D1136E23F000431366536EDD
:100C100003F0F84363453ED0936E03F0F843634519
:100C200042D1936E23F000439366D36E03F0F843F2
:100C3000634542D13DE000BF536E4FF20007C0F262
:100C4000FF373B4043EA886343EA0C0343F0004329
:100C5000536632E0936E4FF20007C0F2FF373B401D
:100C600043EA886343EA0C0343F00043936624E0BD
:100C7000D36E4FF20007C0F2FF373B4043EA886370
:100C800043EA0C0343F0004316E000BF536E03F049
:100C9000F8436345C0D1536E23F000435366936E0F
:100CA00003F0F8436345BCD0D36E03F0F8436345CB
:100CB00003D1D36E23F00043D366936803F003039C
:100CC000012B03D11368DB0740F0C480CB680127F8
:100CD000012B07FA08F31FD1D2F8B070B8F10A0F50
:100CE00043EA0703C2F8B03008EB48032ED39769F4
:100CF0001B3B072689689E40B74399403943916161
:100D000040F2083CB8F1120FC5F2000C10D1DCF82B
:100D1000001049022BE000BFD2F8B0109943C2F88E
:100D2000B01040F2083CB8F1120FC5F2000CEED042
:100D3000B8F1110F18D0B8F1100F40F08B80DCF82B
:100D40000010090200F18680012113E0576938255F
:100D50008968DE1C05FA03F327EA0303B14019434F
:100D60005161002177E000BFDCF80010C9014FF0AD
:100D7000000170D493684FF0A04EB2F1A04F03F081
:100D8000030308BFACF5027E012B02D11368DB0719
:100D900048D14FF60053CFF6FF73B2F1A04F04BF16
:100DA0004FF60063CFF6FF735CF8033003F00303E4
:100DB000012B03D1DEF80030DB0733D1C1B3B2F130
:100DC000A04F47D1DCF800104DF6836241F40001DA
:100DD000CCF8001040F26C01C2F200010968C4F2C4
:100DE0001B32A1FB0212910C01EB81014900009121
:100DF000009979B3009901390091009951B3009994
:100E000001390091009929B30099013900910099A5
:100E100001B3009901390091009900294FF00001B8
:100E2000E8D118E0016C41F020010164012112E0D9
:100E3000B8F1110F08D1B2F1A04F0BD1DCF80010BE
:100E400041F0807104E000BFDCF8001041F4800143
:100E5000CCF800100021002280F83C20084601B0A8
:100E6000BDE8F08170470000704700007047000047
:100E7000B0B582B00446002001904CB1206CC00691
:100E80000AD4206C002879D02168002529E100BF10
:100E9000012002B0B0BD00BF0025206C00F01000A2
:100EA000401940F0308120688168490700F12B81AA
:100EB000226C40F2083122F481720232226483688B
:100EC0004FF0A042B0F1A04F03F00303C5F20001C0
:100ED00008BFA1F50272012B02D10368DB0718D10C
:100EE0004FF60053CFF6FF73B0F1A04F04BF4FF69B
:100EF0000063CFF6FF73CB5803F00303012B02D13D
:100F00001268D20705D10A68636822F440321A4396
:100F10000A60616B627E0129D4E902154FEA42330F
:100F200041EA050194F8205003F5805308BF5303AC
:100F3000012D41EA030179D0A26A012A40F0918093
:100F4000826812F00C0F00F09480C2684CF2070324
:100F5000CFF6F0731A401143C1602169026B012979
:100F600022F00F0102D1E269013A1143016300202E
:100F700001216FF003026064C9E000BF0025204634
:100F80006564C4E9125584F83C5000F0C7F8216844
:100F90008868C00000F1A580886800F0030001287F
:100FA00002D10868C00771D1206CC0063FF56DAF53
:100FB000206C41F2021290430230206488684DF6A2
:100FC000836220F0405088608868C4F21B3240F091
:100FD0008050886040F26C00C2F20000006800257A
:100FE000A0FB0202900C00EB8000400001900198F1
:100FF000002876D0019801380190019800283FF42C
:1010000044AF019801380190019800283FF43DAFAA
:10101000019801380190019800283FF436AF0198FB
:101020000138019001980028E4D15AE072B1226C95
:1010300042F0200222F002022264626C42F00102BD
:101040006264A26A012A3FF47BAF0AE0626A00236D
:10105000CFF6FF7303EB42421143A26A012A3FF429
:101060006FAFE36A19431143826812F00C0F7FF4EB
:101070006CAFC26844F202039A43C260227E94F8C5
:101080003030920342EA430211435EE7886800F081
:101090000D0001281BD1886840F002008860032001
:1010A000086000F0F5FE21688A68D2073FF47CAF43
:1010B000054603E08868C0073FF476AF00F0E8FE1D
:1010C000401B21680328F5D38868C007F2D0206C44
:1010D000012540F010002064606C40F00100606465
:1010E000206C8868C00003D5886880007FF5D5AE85
:1010F000206C40F0100020F002002064606C40F092
:1011000001006064206C012010216FF01202236C3A
:101110001A401143216402B0B0BD00002DE9F04136
:1011200086B00446006840F20011C5F20001884212
:101130004FF000010591CDE90311CDE9011159D01E
:10114000B0F1A04F40F0B78040F26415C2F2000544
:10115000296841F21400C4F202004A1C2A6041B915
:10116000016841F080510160016801F080510091F7
:101170000099016801AE41F40031016001684FF04F
:10118000030801F40031009100990168002741F43F
:10119000802101600068314600F4802000900098B2
:1011A000082001904FF09040CDF80880039700F0A0
:1011B00083FD42F20100CDE9010840F20040C4F68F
:1011C00000003146039700F077FD0820C4F20200CA
:1011D00045F8040F802005F10C0C4FF480714FF49A
:1011E000806220234FF40056C5E901778CE84F0058
:1011F00057E000BF40F26411C2F200010A6841F2F8
:101200001400C4F20200531C0B6042B9016841F0A3
:1012100080510160016801F08051009100990168DE
:1012200001AD41F4003101600168032701F4003190
:10123000009100990168002641F480210160006856
:10124000294600F4802000900098102001904FF073
:1012500090400297039600F02FFD41F20400CDE983
:10126000010740F20040C4F600002946039600F052
:1012700023FD0820C4F2020040F20C351430C2F203
:10128000000580214FF48072C5E9000605F11000C9
:101290004FF4806320274FF4005CC5E9026180E8C9
:1012A0008C10284600F07CFC05F1240608B1FFF7FD
:1012B00003FBA563346006B0BDE8F0812DE9F04181
:1012C000036804469868400703D494F83C0001285A
:1012D00002D10220BDE8F08140F208380120C5F2B9
:1012E000000884F83C00D8F80000C00606D00020B2
:1012F00084F83C000120BDE8F08100BF98681546E5
:1013000000F003000E46012802D11868C0072DD155
:1013100098683F21C8F2000108420DD0206C40F0CF
:1013200010002064606C40F001006064002084F8CC
:101330003C000120BDE8F081986840F00100986011
:1013400000F0A6FD23681968C9070FD1074602E01F
:101350001868C0070AD100F09BFDC01B2368032852
:10136000F6D31868C007F3D1D8E700BF206C40F669
:101370000171884300F580702064D8F80010206C5B
:10138000C90618BFB3F1A04F04D120F48010206427
:10139000D8680CE0A8F5027140F480108B422064FC
:1013A0000CD14FF60450CFF6FF7058F800008001C2
:1013B00004D5206C012161F30D302064206C40F2D3
:1013C000A171C0044FF0000044BF606C20F0060023
:1013D0006064A06BC0F6000140F6090240F2F17CA7
:1013E00000F1280E0027C0F60002C0F6000C8EE8BF
:1013F00006101C2184F83C7019605968324641F08F
:1014000010015960D96841F00101D96003F1400130
:101410002B4600F001FC2068816841F004018160E6
:101420003846BDE8F081000090F82020013A012AFA
:1014300008D8006800F114020020136819431160F5
:10144000704700BF00F1240201204FF4802113688F
:101450001943116070470000026890F82030013B8A
:10146000012B29D8B0B5D2F80002012340F00100C9
:10147000C2F80002D1F814E0CC690EF01F0003FAA4
:1014800000F0D2F81C326FEA000C8343012CC2F842
:101490001C3217D06CBBD2F80C3203EA0C03C2F832
:1014A0000C32CB688C8844EA034302EBCE04C4F8C8
:1014B00040320B4615E000BF416A41F48021416291
:1014C00001207047D2F80C320343C2F80C320B688B
:1014D0008C8844EA034302EBCE04C4F8403201F1A5
:1014E0000C038C681B8843EA044302EBCE04C4F867
:1014F0004432D2F804328D6943EA0004D1F810E096
:10150000096A002D08BF03EA0C04C2F80442D2F8AD
:101510001432BEF1000F43EA000408BF03EA0C04D2
:101520000129C2F8144204D1D2F81C120843C2F8AF
:101530001C02D2F8000220F00100C2F800020020D4
:10154000B0BD00007047000010B590F82040013C8D
:10155000012C7BD8D0F800C000290CBFDCF80C406F
:10156000DCF81040A4077BD00CEB011CDCF8B04188
:101570000CF5D87E14F004049460DCF8B04119BF77
:10158000E4085460640D1460DEF800400CF5DA7E67
:1015900004F00204D460DCF8B44124075ABFDEF83A
:1015A000004004F00F0408241461DEF80040002914
:1015B000C4F307249461DEF800404FEA14445461F8
:1015C000DCF8B8211A70026802EB0112D2F8B821D7
:1015D0004FEA12225A70026802EB0112D2F8B821C7
:1015E0004FEA12429A70026802EB0112D2F8B82157
:1015F0004FEA1262DA70026802EB0112D2F8BC21E3
:101600001A71026802EB0112D2F8BC214FEA1222D1
:101610005A71026802EB0112D2F8BC214FEA124261
:101620009A71026802EB0112D2F8BC214FEA1262F1
:10163000DA7100680CBF00F10C0100F1100100200C
:1016400020220B681A430A6010BD00BF00F124017C
:1016500001204FF480220B681A430A6010BD00BFBE
:1016600000F1240101204FF400120B681A430A60B4
:1016700010BD00002DE9F04F81B0044600684669B6
:10168000D0F804908768D0F80CB0D0F810A0D0F84B
:101690001880F10704D1002530071DD424E000BFD5
:1016A000F90710D00121BA07816009D4780700F149
:1016B000AF80380700F1B680204600F011FA02E052
:1016C000204600F00FFA0025F80500F18780F803A6
:1016D00000F1B180300707D51BF0100004D020685E
:1016E00045F400751021C160700708D51BF0080093
:1016F00005D020680821C160204600F0A1F9B0079C
:1017000006D52068C068800702D0204600F09AF90C
:10171000700607D51AF0100004D0206845F48065E3
:1017200010210161B00608D51AF0080005D0206824
:1017300008210161204600F09FF9F00606D52068D7
:101740000069800702D0204600F098F9B00308D560
:1017500019F0100005D0206810214160204600F0EB
:101760008FF9F00308D519F0080005D0206808218A
:101770004160204600F0C0F9300440F19B805FEAF0
:10178000497040F1948006F4807008EA10202843E4
:101790005FEA8871014648BF41F00201B20558BFB7
:1017A00001465FEA48700D4648BF45F004057005E4
:1017B00058BF0D46300540F17A8018F0700000F0F7
:1017C00076801038000905286CD8DFE800F003594E
:1017D0005D61656945F0080564E000BF20684FF46D
:1017E0008071BA0581600BD4780515D438051DD4F5
:1017F000204600F079F9F8037FF56CAF1BE000BFDD
:10180000204600F073F9F8037FF564AF13E000BFE2
:101810004FF4006558E700BF05F50055F8037FF564
:1018200059AF08E04FF480554EE700BF05F58045FD
:10183000F8037FF54FAF20684FF48031BA03816021
:101840000AD4780310D4380314D4204600F050F999
:1018500030073FF541AF47E7204600F04BF930072E
:101860003FF53AAF40E700BF05F5004530073FF5CB
:1018700033AF39E705F5803530073FF52DAF33E756
:1018800045F010050EE000BF45F020050AE000BF5E
:1018900045F0400506E000BF45F0800502E000BFCE
:1018A00045F480752068816921F0700181612068AC
:1018B0000421416055B1606A40EA05012046616239
:1018C00001B0BDE8F04FFFF73DBE00BF01B0BDE87D
:1018D000F08F0000002804BF01207047B0B5044617
:1018E00090F8200010B9204600F06EF820680168DA
:1018F00041F00101016000F0CBFA05462068416823
:10190000C90705D100F0C4FA401B0B28F6D310E03C
:10191000016821F00201016000F0BAFA054600BF3B
:101920002068416889070DD500F0B2FA401B0B28EA
:10193000F6D3606A052140F400306062012084F82B
:101940002010B0BD217E0268012922F0800208BF6C
:1019500080320260617E0268012922F0400208BFE5
:1019600040320260A17E0268012922F0200208BFF5
:1019700020320260E17E0268012922F0100218BFC5
:1019800010320260217F0268012922F0080208BF9C
:1019900008320260617F0268012922F0040208BF58
:1019A00004320260D4E901C2D4E9033561691A4303
:1019B0002A431143ACF101021143C161002001210E
:1019C000606284F82010B0BD006846F20041C4F2A5
:1019D0000001884218BF704780B586B041F21400FC
:1019E000C4F20200816841F000718160816801F0F9
:1019F000007101910199016841F4003101600068B2
:101A000001A900F40030019001984FF4C0500190FA
:101A100002200290002003900320049009200590EA
:101A20004FF0904000F048F914200021002200F00F
:101A30006DFE142000F058FE06B0BDE880407047EF
:101A400070470000B0B540F2E825C2F2000505F18C
:101A50001C0400212A462346FFF776FD286800284B
:101A600018BFB0BD40F22C60C2F200002146BDE8B4
:101A7000B040FEF7F5BE0000704700007047000060
:101A800070470000B0B5044690F8200001281DD131
:101A9000022084F820002068016821F00101016023
:101AA00000F0F6F9054600BF20684068C00713D073
:101AB00000F0EEF9401B0B28F6D3606A40F40030CA
:101AC0006062052084F820000120B0BD606A40F407
:101AD000002060620120B0BD00206062B0BD000047
:101AE000704700007047000070470000704700001A
:101AF000704700007047000070470000B0B5D0E9A3
:101B00000FC30268DCF800100424D2F800E09C4007
:101B10000C4218BF1EF0040520D102249C400C4248
:101B200018BF1EF0020527D1D940090722D51EF0A3
:101B3000080108BFB0BD116821F00E01116001213C
:101B400001FA03F2CCF804208163016B4FF4807238
:101B5000028479B1BDE8B040084700BF116889062A
:101B600003D4116821F004011160CCF80440C16A6B
:101B70000029EFD1B0BD00BF1168890606D41168F5
:101B800021F00A011160012180F82110CCF80440F5
:101B9000816A0022002980F82020DBD1EAE70000DA
:101BA000002804BF012070472DE9F04301684FF67B
:101BB000F872CBF6FD724CF6CD430A44CCF6CC431A
:101BC000A2FB032C00F1040E9EE80441D0E9049529
:101BD000D0E906670B6843F6F074A3431A4342EA60
:101BE000080242EA0E0242EA09022A4332433A4319
:101BF0000A606FF00301002201EA9C01C4F20202B4
:101C0000C0E90F2100214FF4807281630284BDE896
:101C1000F04308467047000090F820C0BCF1010F67
:101C200004BF02207047F0B590F821C04FF0010EBC
:101C3000BCF1010F80F820E026D14FF0020C80F8B3
:101C400021C04FF0000CC0F838C0D0E900C4C56A0C
:101C5000C66BDCF80070102C27F00107CCF8007080
:101C6000006C0EFA00F070600846CCF8043004BF37
:101C700010460A46CCF80800CCF80C20DCF800002E
:101C800045B140F00E000DE0002180F82010022048
:101C9000F0BD00BF40F00A00CCF80000DCF8000006
:101CA00020F00400CCF80000DCF8000040F0010057
:101CB000CCF800000020F0BD2DE9F04F82B00F6895
:101CC000002F00F0D38040F2004C40F60042C4F2F6
:101CD000010CC4F600020523002400264FF0000A80
:101CE000904208BF0323009344E000BF012204F0A8
:101CF0000C050F27AF402EEA0707AA404FEA9A03C8
:101D00003A4349F82320DCF808204B6842EA0807E8
:101D100040F20C4EDD0258BF22EA0807CCF80870EA
:101D2000C4F2010EDEF800209D0242EA080758BF07
:101D300022EA0807CEF80070DCF804209D0342EA8E
:101D4000080758BF22EA0807CCF80470DCF8002026
:101D5000DB0342EA080758BF22EA0807CCF8007004
:101D60000F680AF1010A37FA0AF206F1020604F1D5
:101D700004047BD0012202FA0AF517EA0508EFD025
:101D8000D1F804E003230EF0030BABF1010203FAD8
:101D900006F7012A6FEA070910D88268CF6802EABD
:101DA0000902B7403A4382604268AA43CEF3001565
:101DB00005FA0AF52A43426006E000BFBBF1030FB3
:101DC00002D14FF0030B1EE0C2688D6802EA0902DF
:101DD000B5402A43BBF1020FC26014D16FF0030279
:101DE00002EA5A020244D2F820E004F01C050F2354
:101DF0000F69AB402EEA0303AF403B431362D1F8B7
:101E000004E00EF0030B02680BFA06F302EA090283
:101E10001A431EF4403F0260A2D041F21803C4F2FC
:101E200002031A68ACF57E7942F001021A601A6862
:101E3000B0F1904F02F001020192019A2AF00302E0
:101E400059F802E010D040F20042C4F6000290427D
:101E50003FF44CAF40F60002C4F600029042009AF4
:101E600008BF022243E700BF002240E702B0BDE8FE
:101E7000F08F0000426902EA0103914341EA034105
:101E8000816170471823002A08BF2823C15070477A
:101E900040F24060C2F200000068704790F8C02035
:101EA000012A4FF0020221D0012380F8C03080F8CF
:101EB000C12002684B1CD2F8CCC309D04CF00203FD
:101EC000C2F8CC33D2F8CC3323F00C03194301E031
:101ED0002CF00201C2F8CC13D2F8CC1341F001016E
:101EE000C2F8CC130121002280F8C11010467047BF
:101EF00090F8C130022B04BF0220704790F8C03028
:101F0000012B4FF002033DD070B580F8C130D2E90B
:101F100000C3D2E902E60CF4E0546FF35F231569C5
:101F200023440EF40074234405F480452B4406F446
:101F30000046334456690025C0F2FF1505EA0646FF
:101F40009569334405F00076156A334405F0804600
:101F5000D2693343066802F0004206EBC1111A430E
:101F6000D1F8B83042F20006C3F6004633401A43B7
:101F7000C1F8B8200121002380F8C11080F8C030DA
:101F8000BDE8704018467047002804BF0120704724
:101F900010B582B00446022084F8C100207AC00740
:101FA0004FF00000C4E93100C4E93300C4E9350052
:101FB0001FD0206847F20041C4F2010188420CD1D1
:101FC00041F21801C4F202010A6842F000520A60AC
:101FD000096801F00051019101990168D4E90423D5
:101FE00021F4704102F44042114403F44052114480
:101FF0000160204600F038F8207A800706D5206876
:10200000E1680268090A61F309220260012084F88C
:10201000C100002084F8C000C4F8BC00C4E9060078
:10202000C4E90800A062C4E90C00C4E90E00C4E9D8
:102030001000C4E91300C4E91500C4E91700C4E99D
:102040001A00C4E91C00C4E91E00C4E92100C4E967
:102050002300C4E92500C4E92800C4E92A00C4E932
:102060002C0002B010BD0000006847F20041C4F22D
:102070000101884218BF704781B041F21800C4F2D4
:102080000200016841F000510160006800F000505A
:102090000090009801B0704770B50D460446FFF7F8
:1020A000F7FE2168D1F88823D2031FD435B3064642
:1020B000681C11D1D1F88803C00317D4D1F8880364
:1020C000C0035CBFD1F888035FEAC0300ED4D1F8FA
:1020D0008803C003EED509E0FFF7DAFE801BA842B3
:1020E0000ED82068D0F88803C003F5D5012084F805
:1020F000C100002084F8C00070BD00BFFFF7C8FE1B
:10210000072084F8C100032070BD000090F8C130A2
:10211000022B4FF0020331D010B580F8C1300368B4
:10212000052911D11968D2E900CED2E9024221F085
:102130001F0124F01804214311431960C3F814C08F
:10214000C3F818E014E000BF03EBC111D1F88030F0
:10215000D2E900ECD2E9024223F01F0324F0180474
:1021600023431A43C1F88020C1F894E0C1F898C015
:102170000121002380F8C110BDE8104018467047C7
:1021800090F8C1C0BCF1020F04D14FF0020C6046C0
:10219000704700BF90F8C0C0BCF1010F4FF0020CB7
:1021A00002D16046704700BF10B54FF0010E0529FF
:1021B00080F8C0E080F8C1C012D1511E07292DD887
:1021C0000FF20402DFE801F004222A362A2A2A3E0E
:1021D00019680268D16190F8C110072939D095E0DB
:1021E000A2F1010CBCF1070F54D80FF20602DFE890
:1021F0000CF0053751595151516100BF02681B68FD
:1022000002EBC111C1F89C3075E000BF196802688B
:10221000516290F8C11007291BD077E0072180F8A0
:10222000C110002180F8C01090F8C110072910D00B
:102230006CE000BF19680268916290F8C11007292C
:1022400007D063E019680268D16290F8C1100729CD
:102250005CD14FF0010CBDE810406046704700BFF4
:10226000D0F800C0D3E900E40CEBC11CCCF8A4E02A
:10227000614651F8802F22F440520A60DCB30A68AC
:10228000B4F5405F42EA04020A6031D0B4F5005F61
:1022900029D030E0072180F8C110002180F8C0105B
:1022A00029E000BF02681B6802EBC111C1F8A83029
:1022B00021E000BFD0F800C0D3E900420CEBC11C04
:1022C000CCF8AC40614651F8804F24F440440C6097
:1022D0008AB10C68B2F5405F44EA82040C6007D012
:1022E000B2F5005F07D19968CCF89C1003E000BFFD
:1022F0009968CCF8A81090F8C110072906D14FF0C2
:10230000010CBDE810406046704700BF01214FF04E
:10231000000C80F8C11080F8C0C0BDE810406046D5
:102320007047000090F8C020012A4FF002020BD045
:1023300080F8C1200268136819431160012100224E
:1023400080F8C11080F8C02010467047B0B5044630
:1023500090F8C100022804BF0220B0BD94F8C0006C
:1023600001284FF0020008BFB0BD012584F8C0501D
:1023700084F8C100204601F033FA002084F8C150EF
:1023800084F8C000B0BD000090F8C020012A4FF0D2
:1023900002020DD080F8C1200268D2F894331943AC
:1023A000C2F894130121002280F8C11080F8C020E7
:1023B0001046704790F8C020012A4FF002020DD05D
:1023C00080F8C1200268D2F898331943C2F89813F4
:1023D0000121002280F8C11080F8C020104670470B
:1023E00090F8C130022B04BF0220704790F8C03033
:1023F000012B4FF0020300F0FF802DE9F04F8EB06B
:10240000012780F8C07080F8C130D0F800B04FF2DA
:10241000DF350529CFF2FF152ED1DBF80070DBF890
:10242000A0C3D2E905462F4020352C404FF6FF359A
:10243000D2E9073EC1F2FF153C4335402C4323F05F
:102440006E4323432EF06847566A3B433343976AF3
:102450004FF6FC76CDF6FF76156B06EA870723F07C
:1024600060432F433B43D76A2CF480363743CBF885
:102470000030CBF8A0739EE00BEBC11CE6465EF883
:10248000803F644623F07043CEF80030DEF8003021
:10249000E246079354F8E83FCDE90C435AF8E49F2D
:1024A000DBF8A043566B26B9136C29F4807743EA16
:1024B00007095369009393690193D3690293136ADF
:1024C0000393536A0493936A0593136B0693136DF6
:1024D0000893D2E911830993D2E90E73CDE90A7307
:1024E00048F48053B3F5F05F01D1402E03D129F4B5
:1024F000F05343EA0809D76CA04604290ED83FA33D
:1025000053F82130D56A4C1C03EA080305FA04F499
:102510004FF2DF35CFF2FF1544EA0308079B05F1C0
:1025200020042B40009D2C4023434FF6FF34019D97
:10253000C0F2FD1425402B43029D04F580642C401D
:1025400023434FF6FF74039DC0F2FD7425402B43D7
:10255000049D04F100642B432340059C24F40034C3
:102560002343069CB4F1005F08BF03F500334FF628
:10257000BF74089DCFF60364234026F0FE7425F057
:10258000FC752C43099D2C432343CEF800304FF6B5
:10259000E0730D9EC7F6FF7333400A9E06F01F06D8
:1025A00033440B9E33430C9E3360CAF80090CCF842
:1025B000D470CBF8A083C1EBC103D2E90076D2E995
:1025C0000254126900EB83030529C3E90876C3E9C5
:1025D0000A541A6307D80EA252F82110DBF884239C
:1025E0001143CBF884130121002380F8C11080F837
:1025F000C0300EB0BDE8F04F18467047FFFFFDFF3A
:10260000FFFFFBFFFFFFF7FFFFFFEFFFFFFFDFFF16
:10261000020000000400000008000000100000009C
:10262000200000000100000040F2000040F2406184
:10263000C2F20000C2F2000100780A68104408608B
:102640007047000080B542F20000C4F20200016849
:1026500041F010010160032000F084F80F2000F029
:1026600005F800F027F8002080BD000070B540F2AA
:102670000006C2F2000640F26C013278C2F200019C
:102680004FF47A730968B3FBF2F20446B1FBF2F13E
:10269000084600F009FC0F2C4FF0010508D838B9A6
:1026A0004FF0FF3021460022002500F02FF8746023
:1026B000284670BD82B041F21800C4F202000168E1
:1026C00041F001010160016801F0010101910199EE
:1026D000416841F080514160406800F080500090B6
:1026E000009802B070470000002848BF704700F013
:1026F0001F01012202FA01F11C2202EAD0004EF26F
:102700000012CEF2000281507047000010B54EF664
:102710000C5CCEF2000CDCF80030C3F3022E8EF01D
:102720000704042C28BF0424BEF103034FF0FF3E2E
:102730000EFA04F438BF0023A14399400EFA03F3C4
:102740009A43114300F00F0200F160430901043A7B
:1027500003F564436244002848BF02F10C0319707A
:1027600010BD00004EF60C51CEF200010A684FF683
:10277000FF031A4060F30A2242F0806040F0FD70CF
:10278000086070472DE9F04182B00446807841F23C
:102790003006C007C4F2020655D056F8140C5FEAA2
:1027A000C0080BD456F8140C40F0805046F8140CB6
:1027B00056F8140C00F080500190019847F2000781
:1027C000C4F200073868C00512D4386840F480703D
:1027D0003860FFF75DFB05463868C00508D4FFF791
:1027E00057FB401B6428F7D9032002B0BDE8F081F5
:1027F00056F8100C10F4407014D0616801F4407168
:1028000088420FD056F8100C40F24042C4F24222E7
:10281000012320F4407113600023C007136046F8C1
:10282000101C49D156F8100C616820F44070084320
:10283000B8F1000F46F8100C05D456F8140C20F02F
:10284000805046F8140C2068C10711D1810617D4B6
:1028500001061DD4C10425D4400405D53068A16902
:1028600020F4805008433060002002B0BDE8F081C1
:102870003168A26821F00301114331608106E7D578
:102880003168E26821F01001114331600106E1D5A1
:1028900056F8041C226921F4F871114346F8041C0F
:1028A000C104D9D53168626921F480711143316066
:1028B0004004D3D4D8E700BFFFF7EAFA054641F257
:1028C000883700BF56F8100C8007ABD4FFF7E0FA4A
:1028D000401BB8424FF00300F4D9C6E7002804BFFC
:1028E000012070472DE9F04381B042F20008C4F2A4
:1028F00002080446D8F800000D4600F007008842A0
:102900000CD2D8F8000020F007002843C8F80000D7
:10291000D8F8000000F00700A8425ED1206841F21C
:1029200004098107C4F2020907D5D9F80010A2688A
:1029300021F0F0011143C9F80010C00744D1D8F8C4
:10294000000000F00700A8420CD9D8F8000020F0E1
:1029500007002843C8F80000D8F8000000F007007E
:10296000A8423AD12068410707D5D9F80010E2689B
:1029700021F4E0611143C9F80010000708D5D9F827
:102980000000216920F4605040EAC100C9F800004D
:10299000D9F8002002F00C00082841F20020C0F213
:1029A0007A0051D145F2B073C2F38341C0F60003FF
:1029B000595CD9F82830D2033CD440F60010C0F25C
:1029C0003D00484340E000BF606802280AD001286B
:1029D0002AD159F8041C890308D4012001B0BDE8AC
:1029E000F08300BF59F8041C8901F6D5D9F800100E
:1029F00021F003010843C9F80000FFF749FA064631
:102A000041F28837D9F80000616800F00C00B0EBA3
:102A1000810F94D0FFF73CFA801BB842F2D9032013
:102A200001B0BDE8F08300BF59F8041C8907D4D574
:102A3000DCE700BF03F00F0245F2C073C0F60003ED
:102A40009A5CB0FBF2F04843D9F8001045F2987256
:102A5000C1F30311C0F60002515C40F26C0220FA8F
:102A600001F140F20400C2F200000068C2F200026C
:102A70001160FFF7FBFD002001B0BDE8F08300000E
:102A800040F26C0041F20401C2F20000C4F2020103
:102A90000068096845F2A872C1F30221C0F600027D
:102AA000515CC8407047000041F2040CC4F2020CB3
:102AB000DCF8003003F00C00082841F20020C0F2DE
:102AC0007A0018BF704745F2B071C3F38342C0F675
:102AD00000018A5CDCF82810DB0305D440F6001006
:102AE000C0F23D005043704745F2C07301F00F0142
:102AF000C0F60003595CB0FBF1F050437047000092
:102B0000002804BF012070472DE9F04182B004463F
:102B1000007841F20006C007C4F202060CD07068CB
:102B200000F00C00042840F07F803068800303D55B
:102B30006068002800F03481207880071BD5706819
:102B400010F00C0F09D0706800F00C00082840F05D
:102B50009F807068C00300F19B803068800703D5B8
:102B60002069012840F01C813068616920F0F8007C
:102B700040EAC10030602078000713D42078400775
:102B80002AD4E569002D00F00681706800F00C0081
:102B9000082840F0C180012D40F0F280012002B0F1
:102BA000BDE8F081A069002800F09E800020C4F2FA
:102BB00042200121C0F88014FFF76AF9054600BFE2
:102BC000706A8007DAD4FFF763F9401B0228F7D94F
:102BD000032002B0BDE8F081F0695FEAC00808D4C4
:102BE000F06940F08050F061F06900F08050019091
:102BF000019847F20007C4F200073868C00561D4A5
:102C0000386840F480703860FFF742F9054600BF2D
:102C10003868C00556D4FFF73BF9401B6428F7D944
:102C2000032002B0BDE8F081706800F00C000828B5
:102C300003D17068C0033FF578AF6068B0F5A02F8E
:102C400000F0F080B0F5803F00F0F080002840F008
:102C5000F180306820F480303060306820F48020CB
:102C60003060F06AA16820F00F000843F062FFF7BF
:102C70000FF90546306880037FF55EAFFFF708F96E
:102C8000401B64284FF00300F4D902B0BDE8F08186
:102C90002069002840F20000C4F242205ED00121E9
:102CA0000160FFF7F5F80546306880073FF55CAF37
:102CB000FFF7EEF8401B0228F6D9032002B0BDE86A
:102CC000F08100BFE06800286ED0052800F0868003
:102CD000012800F08780306A20F001003062306AFD
:102CE00020F0040081E000BF0020C4F24220002157
:102CF000C0F88014FFF7CCF8054600BF706A800763
:102D00007FF53CAFFFF7C4F8401B0228F6D903203B
:102D100002B0BDE8F08100BF0027C4F242270020C6
:102D20003866FFF7B5F8022D05460BD130688001F3
:102D300040F1A080FFF7ACF8401B02284FF00300E1
:102D4000F4D9A2E73068800125D5FFF7A1F8401B30
:102D500002284FF00300F5D997E700BF002101607A
:102D6000FFF796F8054600BF306880077FF503AF90
:102D7000FFF78EF8401B02284FF00300F4D984E7D8
:102D80007068216A00F480328A4209D1616A00F4D5
:102D90007010884204D1002002B0BDE8F08100BF6D
:102DA000012002B0BDE8F081306A20F001003062FD
:102DB000306A20F004003062FFF76AF8054641F2FD
:102DC000883700BF306A800722D5FFF761F8401BC3
:102DD000B8424FF00300F5D957E700BF306A40F022
:102DE00004003062306A40F001003062FFF750F8B2
:102DF000054641F2883700BF306A800708D4FFF7E4
:102E000047F8401BB842F7D9032002B0BDE8F08173
:102E1000B8F1000F3FF5B5AEF06920F08050F061D9
:102E2000AFE600BF306840F480203060306840F486
:102E3000803006E0306820F480303060306820F464
:102E400080203060F06AA16820F00F000843F06233
:102E5000FFF71EF8054600BF306880033FF56CAEF3
:102E6000FFF716F8401B6428F6D9032002B0BDE82E
:102E7000F08100BF7068D4E9081220F47410104388
:102E80000843706001203866FFF702F8044600BF6F
:102E9000306880013FF57FAFFEF7FAFF001B022884
:102EA0004FF00300F4D9F0E6411E0020B0EB116FA3
:102EB0001CBF012070474EF21002CEF2000251609A
:102EC0004EF62351CEF20001F0230B7007219060E3
:102ED00011607047704700007047000070470000A5
:102EE00090F83C20012A4FF002023AD010B580F849
:102EF0003D20026842F6004C5368D2F808E0C4F264
:102F0000010C624503D14C6823F4700323430C6821
:102F100023F07003234342F6FF34C4F20104A242BB
:102F2000536009DCB2F1804F0ED040F20043C4F28E
:102F300000039A4208D00CE044F20003C4F20103FB
:102F40009A4201D0624504D189682EF0800319436A
:102F500091600121002280F83D1080F83C20BDE8FE
:102F60001040104670470000002804BF0120704741
:102F700010B5044690F83D0028B9002084F83C00C4
:102F8000204600F085F8022084F83D0020680168A2
:102F9000B0F1804F0BD042F60042C4F201029042E1
:102FA00005D040F20042C4F20002904203D1A26870
:102FB00021F07001114343F6FF72C4F20102904206
:102FC00010DCB0F1804F1FD040F20042C4F200028A
:102FD000904219D042F60042C4F20102904213D04E
:102FE00016E000BF44F20002C4F2010290420BD08E
:102FF00044F60002C4F20102904205D044F20042BD
:10300000C4F20102904203D1226921F440711143BC
:10301000A36921F08001E2681943D4F804C001607B
:10302000A0F18041C262A1F59631820542EA912168
:103030000729C0F828C007D8012202FA01F111F0CF
:10304000E10F1CBF61690163012141610269D2077F
:1030500003D0026922F001020261002084F84810C6
:1030600084F83E1084F83F1084F8401084F8411032
:1030700084F8421084F8431084F8441084F8451012
:1030800084F8461084F8471084F83D1010BD000005
:103090000068B0F1804F18BF704780B582B041F230
:1030A0001C00C4F202000168002241F0010101602D
:1030B0000068002100F00100019001981C20FFF73A
:1030C00025FB1C2002B0BDE88040FFF70DBB0000CF
:1030D00090F83D10012917D1022180F83D100168B8
:1030E00042F6FF32C868C4F20102914240F001008A
:1030F000C8600BDCB1F1804F14D040F20040C4F244
:10310000000081420ED01AE00120704744F2000016
:10311000C4F20100814205D042F60040C4F2010031
:1031200081420CD188680722C0F201020240062ABF
:103130004FF00000E9D0B2F5803F08BF7047086843
:1031400040F00100086000207047000090F83C202B
:10315000012A4FF0020200F0C58080B580F83D20C2
:10316000D0F800C08822DCF80830CFF6FE721A4092
:10317000CCF808200B684F2B28DC1F2B44DD202BBC
:1031800045D0302B43D0402B40F0AE80D1F804E046
:10319000C968DCF82030DCF8202022F00102CCF8ED
:1031A0002020DCF8182022F0F00242EA011123F07E
:1031B0000A0242EA0E02CCF81810CCF82020DCF803
:1031C000081041F0470121F0300180E06F2B27DD2E
:1031D000B3F5005F48D0B3F5805F7AD0702B40F034
:1031E0008380D1E901E3C968DCF8082043EA0E03D3
:1031F00022F47F4243EA01211143CCF80810DCF8A5
:10320000081041F0770162E00BB1102B6CD1DCF8B3
:10321000081021F07001194341F0070157E000BF89
:10322000502B35D0602B5FD1D1F804E0C968DCF8B1
:103230002030DCF8202022F01002CCF82020DCF82E
:10324000182022F4704242EA013123F0A00242EA3F
:103250000E12CCF81810CCF82020DCF8081041F041
:10326000670121F0100132E0D1E901E3C968DCF81F
:10327000082043EA0E0322F47F4243EA012111436E
:10328000CCF80810DCF8081041F480411FE000BFC2
:10329000D1F804E0C968DCF82030DCF8202022F006
:1032A0000102CCF82020DCF8182022F0F00242EADB
:1032B000011123F00A0242EA0E02CCF81810CCF8F1
:1032C0002020DCF8081041F0570121F02001CCF853
:1032D00008100022012180F83D10002180F83C10E8
:1032E000BDE88040104670470122F3E770470000B8
:1032F000F0B581B004460068C5680669B10717D506
:1033000015F0020114D06FF0020101610121217753
:103310008069800704D02046FFF7E8FF06E000BF81
:10332000204600F09BF8204600F09AF80020207715
:10333000700719D515F0040016D020686FF004014D
:10334000016102212177806910F4407F04D020467A
:10335000FFF7CCFF06E000BF204600F07FF82046D4
:1033600000F07EF800202077300717D515F0080010
:1033700014D020686FF00801016104212177C06931
:10338000800703D02046FFF7B1FF05E0204600F09C
:1033900065F8204600F064F800202077F00619D583
:1033A00015F0100016D020686FF01001016108219F
:1033B0002177C06910F4407F04D02046FFF796FFC4
:1033C00006E000BF204600F049F8204600F048F82B
:1033D00000202077F00718BF15F0010004D1300657
:1033E00005F080070BD412E020686FF00101016145
:1033F000204600F037F8300605F0800707D537B1D2
:1034000020686FF0800101612046FFF765FDF0053F
:1034100007D537B120686FF4807101612046FFF74E
:1034200059FD700609D515F0400006D020686FF0F0
:1034300040010161204600F0A3F8B0060CD515F05C
:10344000200009D021686FF0200220460A6101B0F7
:10345000BDE8F040FFF742BD01B0F0BD704700008D
:10346000704700000068B0F1804F18BF7047B0B5DA
:1034700040F27004C2F20004B4F86200B4F86810BC
:10348000B4F874200844B4F86E109FED391A08445B
:10349000B4F87A101044B4F880200844B4F88610C8
:1034A0001044B4F88C200844B4F892101044B4F8D6
:1034B000982008444CF6CD411044CCF6CC41A0FBFA
:1034C0000112C2F3CF0100EE101AB8EE400A9FEDD0
:1034D000292A20EE010A9FED281A20EE020A9FED0C
:1034E000272A30EE010A80EE020A40F25815C2F295
:1034F000000594ED301A696894ED362A0131E061D7
:10350000D0086960208120EE010A30EE020A84EDC5
:103510002A0A01F00DFA2878012808BF01F0F8FB0B
:1035200000F0B2FD686842F2D84147F6D502C0F219
:103530000611C2F2E96200FB021094ED2B0A94ED31
:103540002C1A48F636114FEAF000C0F2410120EE85
:10355000010A884285ED020A02D9BDE8B0407047F1
:1035600001F018FB00206860BDE8B040704700BF64
:1035700000008039333353403333D3BF9A99993D98
:103580007047000010B5C0B10446C06F28B90020D4
:1035900084F87800204600F025F82420E0672068B1
:1035A000616A026822F00102026011B1204600F057
:1035B00045FE204600F06CFF10B1012010BD00BF99
:1035C0002168486820F490404860886820F02A000C
:1035D0008860086840F0010220460A60BDE810409B
:1035E00000F0A2BE006844F20041C4F2000188422B
:1035F00018BF704780B586B041F21400C4F20200D3
:10360000816841F400318160816801F400310191E9
:103610000199016841F480210160006801A900F46A
:103620008020019001981820019002200290002033
:103630000390032004900720059040F20040C4F658
:103640000000FEF739FB06B0BDE88040704700007F
:103650002DE9F0410446C06F20281CBF0220BDE8C0
:10366000F0810D4600294FF0010000F0B6801646AB
:10367000002A08BFBDE8F0810020C4F884002120A2
:103680009846E067FEF704FCA4F85060A4F8526086
:10369000A1680646B1F5805F02D1206900286BD091
:1036A0002F460025B4F8520000286BD018F1010015
:1036B0001CD0B8F1000F3DD121680BE017F8010BC9
:1036C0000885B4F852000138A4F85200B4F852004A
:1036D000002858D0C869000640F17A80002FEDD14B
:1036E00035F8020B00276FF35F20E9E7216802E05D
:1036F000C869000609D4C869000606D4C86900066E
:103700005CBFC8695FEA0060F2D51FB117F8010B12
:1037100005E000BF35F8020B00276FF35F20088536
:10372000B4F852000138A4F85200B4F8520000284E
:10373000E1D128E0216800BFC869000608D4FEF77F
:10374000A7FB801B404545D821680868F4E700BF07
:1037500017B117F8010B04E035F8020B00276FF3DF
:103760005F200885B4F852000138A4F85200B4F87C
:1037700052000028E0D106E00027B4F852000028EB
:103780007FF494AF2168C86940061FD4B8F1000FD8
:103790001ED018F101000FD1C869400616D4C869BF
:1037A000400613D4C869400610D4C86940064FF0DB
:1037B0000000F1D50FE000BFFEF76AFB801B40451B
:1037C00008D820680168C0694006F5D5002002E0ED
:1037D000FEF75EFB03202021E167BDE8F0810000D9
:1037E0002DE9F04100687F2A00EBC114A04658F88B
:1037F000E4EF4FF0000158F82CCC00F32F80013A91
:103800003F2A00F23C80DFE802F021333A213A3AC5
:103810003A333A3A3A3A3A3A3A213A3A3A3A3A3A28
:103820003A3A3A3A3A3A3A3A3A333A3A3A3A3A3AFF
:103830003A3A3A3A3A3A3A3A3A3A3A3A3A3A3A3AE8
:103840003A3A3A3A3A3A3A3A3A2100BFD3E90112BF
:10385000C4F8BC10C4F8C020002110E0802A07D0B2
:10386000B2F5007F04D0B2F5807FEFD007E000BF53
:10387000D3E90112C4F8C4101021C4F8C820D3E958
:103880000506D3E9034730431D683843FE22204331
:103890008A4028432EEA02028840082F42EA0002AA
:1038A00005D11CF4007008BF1CF0007004D0C8F8EB
:1038B0000020BDE8F08100BFD86988400243C8F805
:1038C0000020BDE8F0810000FEE7000090ED001A46
:1038D000B4EE401AF1EE10FA02DD80ED000A7047F6
:1038E000B1EE400AB4EE401AF1EE10FAB8BF80ED26
:1038F000000A704710B58AB040F22020C2F20000E2
:10390000032100244FF0A04C4FF480320123C16109
:1039100004210994CDE90744CDE90544CDE90344E8
:10392000CDE90144437680F82040C0E90A3480F8AC
:103930003030C0E900C2C0E90244C0E90431047675
:103940004463FDF795FA002818BFFCF7B5FF40F275
:103950002020C2F2000007A90794FDF733F80028E1
:1039600018BFFCF7A9FF042001900120029000205D
:1039700004900721CDE9050040F220200391C2F216
:10398000000001A9FDF796F8002818BFFCF794FF86
:103990000B2001900220029040F22020C2F2000091
:1039A00001A9FDF787F8002818BFFCF785FF0D2057
:1039B00001900320029040F22020C2F2000001A9F1
:1039C000FDF778F8002818BFFCF776FF0AB010BDA5
:1039D000B0B586B040F2702040F20011C2F2000093
:1039E000C5F2000103234FF4803200240125C36196
:1039F000042380E816004FF4807180F82040C0E96D
:103A00000A5480F83050C0E90345436101834463A0
:103A1000FDF72EFA002818BFFCF74EFF0720029092
:103A200040F27020C2F200006946CDE900550394CF
:103A3000CDE90444FDF73EF8002818BFFCF73CFF31
:103A40000C2000900220019040F27020C2F2000091
:103A50006946FDF72FF8002818BFFCF72DFF0D2051
:103A600000900320019040F27020C2F200006946ED
:103A7000FDF720F8002818BFFCF71EFF06B0B0BD08
:103A800080B540F2C02046F20041C2F20000C4F20C
:103A900000010322002380E80E0000F10C014FF426
:103AA000C02C4FF4401E81E8085083618383FDF7EA
:103AB00011FF002808BF80BDBDE88040FCF7FCBEB8
:103AC00080B582B041F21400C4F202000168002205
:103AD00041F0010101600068002100F00100019047
:103AE00001980B20FEF712FE0B20FEF7FDFD0C20C7
:103AF00000210022FEF70AFE0C2002B0BDE8804043
:103B0000FEF7F2BDF0B587B0002541F2140006952E
:103B1000C4F20200016840F6000441F40021016093
:103B20000168C4F6000401F40021019101990168C3
:103B3000012241F48001016001684FF4005601F454
:103B40008001019101990168012741F40031016070
:103B5000016801F4003101910199016841F480216B
:103B6000016000684FF4005100F48020019001983A
:103B70002046FEF787F902A92046CDE90267CDE984
:103B80000455FEF799F807B0F0BD00002DE9F041AB
:103B9000B2B047F20045002414A85421C4F2010534
:103BA000CDE92B44CDE92944FCF711FB08A82421D9
:103BB0001394CDE91144FCF70AFB40F25030C2F2F5
:103BC0000000CDE90644CDE90444CDE90244CDE945
:103BD0000044C0E900548460FEF7D6F9002818BFFD
:103BE000FCF76AFE40F25030C2F200000C21FEF7F2
:103BF00055F9002818BFFCF75FFE40F25030C2F2C2
:103C000000000A21FEF748FA002818BFFCF754FE0E
:103C10004FF43440299008202C9040F2503000247A
:103C2000C2F2000029AA0521CDE92A44FEF76EFA66
:103C3000002818BFFCF740FE0120CDE918044FF022
:103C40000050209040F25030C2F2000014AA05212A
:103C5000CDE91644CDE91444CDE91A44CDE91C441C
:103C6000CDE91E44FEF7BCFB002818BFFCF724FE7C
:103C700040F25030C2F2000029AA00210024FEF7D1
:103C800045FA002818BFFCF717FE4FF000601D90A2
:103C90004FF48070CDE924041020CDE9270440F2D0
:103CA0005030C2F2000014AA0021CDE91444CDE93D
:103CB000214423942694FEF793FB002818BFFCF7B9
:103CC000FBFD0020259040F25030C2F2000014AA03
:103CD0000321FEF785FB002818BFFCF7EDFD4FF62A
:103CE000DF70119040F25030C2F2000011AB0021A1
:103CF00001220024FEF744FA002818BFFCF7DCFD7F
:103D000040F25030C2F2000011AB00210222CDE996
:103D10001244FEF735FA002818BFFCF7CDFD40F23B
:103D20005030C2F2000011AB03210222FEF728FA44
:103D3000002818BFFCF7C0FD00204FF496710890D2
:103D4000CDE90910CDE90B00CDE90D10CDE90F004B
:103D500040F25030C2F2000008AA0021FEF7C8F875
:103D6000002818BFFCF7A8FD40F25030C2F2000056
:103D700008AA0321FEF7BCF8002818BFFCF79CFD39
:103D800004210020019108210090CDE90210CDE925
:103D90000400CDE9060040F25030C2F200006B464C
:103DA00000210122FEF7D2FA002818BFFCF784FD9B
:103DB00040F25030C2F200006B4603214022FEF771
:103DC000C5FA002818BFFCF777FD0020CDE90100F7
:103DD00040F25030C2F200006B4600210222FEF792
:103DE000B5FA002818BFFCF767FD40F25030C2F268
:103DF00000006B4603218022FEF7A8FA002818BFB6
:103E0000FCF75AFD40F25030C2F2000029AA03210B
:103E1000FEF77CF9002818BFFCF74EFD40F2503445
:103E2000C2F2000411AB204603210122FEF7A8F9DB
:103E3000002818BFFCF740FD2068A84202D032B02D
:103E4000BDE8F08141F21400C4F2020001682DAC1B
:103E500041F48021016001684FF0020801F48021E3
:103E60002D912D990168002641F400310160006810
:103E7000032700F400302D902D984FF440402D90F2
:103E800040F200400D25C4F600002146CDF8B88070
:103E90002F9630973195FDF70FFF4FF44070CDE925
:103EA0002D084FF090402146CDE92F673195FDF761
:103EB00003FF32B0BDE8F08180B588B040F22C40FD
:103EC0000021C2F200004FF0804247234FF0630C04
:103ED0000791CDE905110291C0E90023C0E9021C58
:103EE00001618161FFF740F8002818BFFCF7E4FC8E
:103EF0004FF48050049040F22C40C2F2000004A91C
:103F0000FFF724F9002818BFFCF7D6FC0020019029
:103F1000039040F22C40C2F2000001A9FEF7E0FF3E
:103F2000002818BFFCF7C8FC08B080BD80B540F27F
:103F3000784044F20041C2F20000C4F200010023C4
:103F40004FF00C0C4FF4E13280E80E00C0E903336F
:103F5000C0E905C3C0E907334362FFF713FB00283C
:103F600008BF80BDBDE88040FCF7A6BCFEE70000AE
:103F700082B070B5C2B0054646A802AE0C460190AC
:103F800030464FF48071CDE94623FCF720F9019BC0
:103F900030464FF48071224600F070FF3046FCF747
:103FA00021F982B2284631464FF6FF73FFF750FBE6
:103FB00042B0BDE8704002B070470000FEE700006C
:103FC000B0B50446C0ED0D0A806994ED002A84ED79
:103FD0000E0A30EEC01A94ED090A04F14405E061BE
:103FE00084ED061A21EE021A284684ED101AFFF716
:103FF0006DFC94ED011A94ED062A94ED113A94EDBE
:104000000A0A21EE021A31EE031A284684ED111A2B
:10401000FFF75CFC94ED062A94ED073A94ED021A42
:1040200032EE432A21EE021A94ED102A94ED113A51
:1040300094ED0C0A32EE032A84ED121A31EE021AC4
:1040400004F13C0084ED0F1AFFF740FC94ED0F0AD9
:10405000B0BD00000A6802604A684260896880ED6D
:10406000090A81600021C0ED0A0A80ED0C1AC0E93E
:104070000311C0E90511C0E90711C0E90F11C0E93A
:10408000111170477047000070B540F20805C2F288
:10409000000595F8440003284CD0022854D001288C
:1040A00018BF70BD40F27006C2F2000640F2AC14B8
:1040B00096ED290AD5ED130AC2F2000404F11000AE
:1040C000FFF77EFFD5ED120A40F2C850B4EE600A49
:1040D000F1EE10FAB8BFF0EE400A96ED2A0AC2F2ED
:1040E0000000C4ED000AFFF76BFF9FED461A84ED58
:1040F000010AB4EE410AF1EE10FAC8BFB0EE410A6F
:104100009FED431A46F26660C3F66670B4EE410A4C
:10411000A060F1EE10FAC8BFB0EE401AB7EE000A88
:1041200030EE410A9FED391A84ED030A20EE010AB0
:1041300050E000BF40F25030C2F20000C321BDE8A1
:104140007040FEF737B900BF40F27004C2F20004BD
:1041500094ED2B0AD5ED150A40F26450C2F200002E
:10416000FFF72EFFD5ED140A40F2AC15B4EE600A4D
:10417000F1EE10FAB8BFF0EE400A94ED2A0A40F2D0
:104180000050C2F20005B1EE400AC2F20000C5EDD7
:10419000000AFFF715FF9FED1B1A85ED010AB4EE2B
:1041A000410AF1EE10FAC8BFB0EE410A9FED161AAF
:1041B00046F26660C3F66670B4EE410AA860F1EE9E
:1041C00010FAC8BFB0EE401A9FED100A85ED031A31
:1041D00021EE000ABDEEC00A10EE100A47F29C4222
:1041E000C0F53441C4F2010211604FF42241C2F81B
:1041F000801100EBD0704FF43441A1EB600090606F
:1042000070BD00BF6666663F8FC2F53C0000344754
:104210000AD7233C70470000FEF706BA4EF68850D6
:10422000CEF20000016841F47001016070470000A7
:1042300040F22C40C2F20000FFF75AB8416A0A0768
:104240000ED4CA0717D18A0720D44A0729D4CA0630
:1042500032D48A063BD480B54A0644D458E000BF25
:104260000268D0F834C0536823F4004343EA0C03D7
:104270005360CA07E7D00268D0F828C0536823F417
:10428000003343EA0C0353608A07DED50268D0F896
:104290002CC0536823F4803343EA0C0353604A076D
:1042A000D5D50268D0F830C0536823F4802343EAA0
:1042B0000C035360CA06CCD50268D0F838C09368A6
:1042C00023F4805343EA0C0393608A06C3D5026843
:1042D000D0F83CC0936823F4005343EA0C03936086
:1042E00080B54A0614D50268D0F840C05368BCF5C2
:1042F000801F23F4801343EA0C03536008D1D2F8E3
:1043000004C0D0F844E02CF4C00343EA0E03536029
:10431000090658BF80BD0168806C4A6822F40022FB
:104320001043486080BD0000B0B582B00446002054
:10433000C4F88400FDF7ACFD216805460A68120741
:1043400035D56FF07E4C20464FF4001100222B46ED
:10435000CDF800C000F04AF940B300BF206850E833
:10436000000F216820F0800041E80002DAB12068E7
:1043700050E8000F216820F0800041E8000292B16F
:10438000206850E8000F216820F0800041E800021A
:104390004AB1206850E8000F216820F0800041E811
:1043A0000002002ADAD12020E0675FE02168086877
:1043B000400761D56FF07E4C20464FF4800100220B
:1043C0002B46CDF800C000F011F9002854D000BFF2
:1043D000206850E8000F216820F4907041E8000246
:1043E000E2B1206850E8000F216820F4907041E8A5
:1043F00000029AB1206850E8000F216820F4907004
:1044000041E8000252B1206850E8000F216820F412
:10441000907041E80002002ADAD100BF206850E81D
:10442000020F216820F0010041E80202DAB12068A1
:1044300050E8020F216820F0010041E8020292B129
:10444000206850E8020F216820F0010041E80202D4
:104450004AB1206850E8020F216820F0010041E8CD
:104460000202002ADAD12020C4F8800003200021B3
:1044700084F8781002B0B0BD2020E067C4F8800056
:10448000002020666066002184F8781002B0B0BD7C
:1044900010B5044601688068D4E903C36269184313
:1044A0000243D4F81CE00B6846F6F310CEF6FF701A
:1044B0001840104340EA0E000860486820F440505D
:1044C00040EA0C004860A069226A8B68104323F41C
:1044D00030621043886044F20040C4F20000814220
:1044E0004FF0000215D044F60000C4F200008142F3
:1044F0000FD043F60000C4F20100814220D141F206
:104500003000C4F20200006834A100F0030051F84A
:10451000202041F20020BEF5004FC0F27A0017D1F2
:10452000082A4FF0010154D8DFE802F0065328535F
:1045300022535353260000BFFEF7A2FAF0B944E01D
:10454000102241F20020BEF5004FC0F27A00E7D001
:10455000082A4FF001013CD8DFE802F0063B2A3B75
:10456000243B3B3B280000BFFEF78AFA00BB2CE04F
:10457000FEF79AFA10B928E04FF4004061684A0843
:1045800002EB4000B0FBF1F04FF6EF72A0F110012A
:1045900091421DD84FF6F0710140C0F3420008442B
:1045A00011E000BFFEF780FA10B90EE04FF40040B2
:1045B00061684FF6EF7200EB5100B0FBF1F0A0F133
:1045C0001001914204D82168C860002101E000BFB9
:1045D000012100220846A266E26610BD000000002C
:1045E0000400000008000000020000002DE9F04176
:1045F000804600681546C2690E461140891BB1FA13
:1046000081F14909A94223D1069C2CB3611C29D10F
:10461000C1693140891BB1FA81F14909A94217D119
:10462000C1693140891BB1FA81F14909A9420FD111
:10463000C1693140891BB1FA81F14909A94207D109
:10464000C1693140891BB1FA81F14909A942DFD022
:104650000020BDE8F08100BFFDF71AFC0320BDE893
:10466000F08100BF1F4607E0C0693040801BB0FAF0
:1046700080F04009A842EBD1FDF70AFCC01BA04224
:1046800000F2B080D8F8000001684907ECD5402E50
:10469000EAD0802EE8D0C169090700F1A780C1697E
:1046A0000905E1D54FF400610162D8F8000050E837
:1046B000000FD8F8001020F4907041E80002002AA2
:1046C00043D0D8F8000050E8000FD8F8001020F4CC
:1046D000907041E80002C2B3D8F8000050E8000F23
:1046E000D8F8001020F4907041E800026AB3D8F8BE
:1046F000000050E8000FD8F8001020F4907041E856
:104700000002002AD1D120E0D8F8000050E8020FC2
:10471000D8F8001020F0010041E802020AB3D8F8EE
:10472000000050E8020FD8F8001020F0010041E826
:104730000202B2B1D8F8000050E8020FD8F8001019
:1047400020F0010041E802025AB1D8F8000050E818
:10475000020FD8F8001020F0010041E80202002A00
:10476000D2D1D8F8600001282CD1D8F8000050E848
:10477000000FD8F8001020F0100041E800020AB342
:10478000D8F8000050E8000FD8F8001020F0100012
:1047900041E80002B2B1D8F8000050E8000FD8F8A4
:1047A000001020F0100041E800025AB1D8F80000D3
:1047B00050E8000FD8F8001020F0100041E8000287
:1047C000002AD2D120200021C8F88000C8F860104B
:1047D000C8F86810C8F88400032088F87810BDE88D
:1047E000F08100BF0320BDE8F08100BF0821016215
:1047F000D8F8000050E8000FD8F8001020F49070AE
:1048000041E80002002A44D0D8F8000050E8000F28
:10481000D8F8001020F4907041E80002CAB3D8F82C
:10482000000050E8000FD8F8001020F4907041E824
:10483000000272B3D8F8000050E8000FD8F800105A
:1048400020F4907041E80002002AD1D121E000BF9D
:10485000D8F8000050E8020FD8F8001020F001004E
:1048600041E802020AB3D8F8000050E8020FD8F875
:10487000001020F0010041E80202B2B1D8F80000B7
:1048800050E8020FD8F8001020F0010041E80202C1
:104890005AB1D8F8000050E8020FD8F8001020F004
:1048A000010041E80202002AD2D1D8F860000128B4
:1048B0002CD1D8F8000050E8000FD8F8001020F0F4
:1048C000100041E800020AB3D8F8000050E8000FD9
:1048D000D8F8001020F0100041E80002B2B1D8F87A
:1048E000000050E8000FD8F8001020F0100041E858
:1048F00000025AB1D8F8000050E8000FD8F80010B4
:1049000020F0100041E80002002AD2D12020C8F88F
:10491000800000200821C8F86000C8F86800C8F8C6
:10492000841088F878000120BDE8F081FEE70000DF
:104930002DE9F04F40F27000C2F20000818C468DEC
:10494000C28C038D3144868DC48DB0F86070B0F890
:10495000645032442344B0F86660B0F86A4037448B
:104960002E19448E058E2244B0F86C402944858E61
:104970002744C48E2B44B0F870502144448F2E44F9
:10498000058F2344B0F876402A44B0F8725026448C
:10499000C48F2F44858F2244B0F878402944B0F862
:1049A00040502744B0F842402B44B0F87C5021449A
:1049B000B0F846402E44B0F844502344B0F882404A
:1049C0002A44B0F87E502644B0F84A402F44B0F84C
:1049D00048502244B0F884402944B0F84C50274451
:1049E000B0F84E402B44B0F888502144B0F8524003
:1049F0002E44B0F850502344B0F88E402A44B0F80A
:104A00008A502644B0F856402F44B0F854502244FF
:104A1000B0F890402944B0F8585007EB040EB0F8B5
:104A200094702B44B0F85A403E44B0F85C70B0F833
:104A30005E502144D4195F19B0F89A30B0F896202E
:104A400033444CF6CD467244CCF6CC46A1FB065E10
:104A5000A4FB0658A7FB0659A2FB065AA3FB065B5C
:104A600045899FED475A01EE105A9FED466AB8EE10
:104A7000411A21EE051A9FED447A21EE061ADFED68
:104A8000430A31EE071A81EE201AB0F800C085887B
:104A900000EE10CA04EE105AB8EE400A20EE050AE5
:104AA000B8EE444A20EE060AF2EE0E0AD0ED2D1AB8
:104AB00024EE054AC68820EE200AD0ED332A24EEE3
:104AC000064A20EE210A34EE074A9FED317A02EEC3
:104AD000106A30EE220AD0ED2E1A80ED270A90EDF2
:104AE000340AB8EE422A84EE074A21EE211A22EE59
:104AF000052A31EE000A90ED2F1A22EE062A46888A
:104B000022EE202A90ED357A22EE011A03EE106A89
:104B100031EE071A80ED291AB8EE431A21EE051A74
:104B200080ED280A90ED310A21EE061A21EE201AB6
:104B300090ED372A21EE000AC0E9031430EE020A94
:104B40004FEADE0180ED2B0A90ED320A01804FEA38
:104B5000D80190ED381A41804FEAD90124EE000ABD
:104B600081804FEADA0130EE010AC1804FEADB01B1
:104B7000476180ED2C0A826103624181BDE8F08FBC
:104B800000008039333353403333D3BF9A99993D72
:104B90009A9999BD40F23C60C2F2000090F9000081
:104BA00001280BD0002818BF704740F60000C4F65B
:104BB00000004FF40051FDF75DB900BF40F6000062
:104BC000C4F600004FF400510022FDF75BB900006D
:104BD000A0B0FDF737FD00240120CDE91B44CDE94D
:104BE000194416901A904FF4E0104FF480310225CA
:104BF0001F9016A80F94CDE90D44CDE90B44CDE9E3
:104C00001714CDE91D51FDF77BFF28B1EFF310809C
:104C100072B600BFFEE700BF0F20CDE911054FF4CB
:104C20008060CDE9140411A802211394FDF756FE0B
:104C300020B1EFF3108072B6FEE700BF4FF4804062
:104C40000A904FF4805010900AA8FDF79BFD28B100
:104C5000EFF3108072B600BFFEE700BFFEF752FF11
:104C6000FEF72EFFFEF792FFFEF744FEFEF7B0FEC2
:104C7000FEF706FFFFF720F9FFF758F900F070F88C
:104C800040F2700740F27848C2F20007C2F2000812
:104C90000FF2600907F19C0661CED7F8A840FBF738
:104CA00030FC824630468B46FBF72BFC41EC180B60
:104CB000D7F8AC00FBF725FC41EC190B2846FBF7B5
:104CC00020FC41EC1A0B2046FBF71BFC41EC1B0BB4
:104CD000D7F8B000FBF715FC41EC100B40464946F5
:104CE00052465B468DEC088B8DED080BFFF740F9C3
:104CF000D0E700BF256C662C256C662C256C662CD5
:104D0000256C662C256C662C256C660D0A2000002F
:104D100040F27000C2F2000090ED290A40F2080053
:104D2000C2F2000090ED131AB2EE042A30EE411ADE
:104D3000B4EE420A9FED090AB0EEC11A0222F1EE6A
:104D400010FAB8BF0122B4EE401A0221F1EE10FAB7
:104D5000D8BF0A4680F84420704700BF6666663FA9
:104D6000B0B52DED048B40F22C40C2F20000FEF7EE
:104D7000AFF940F22024C2F2000420460021FBF7E4
:104D8000A1FD40F27005C2F2000505F124012046A4
:104D90001E22FCF793FA40F27024C2F2000420466F
:104DA0000021FBF78FFD05F1600120461E22FCF774
:104DB00085FA40F25034C2F2000420464FF48031AC
:104DC000FDF7B0FA2046C321FDF7DEFA20464FF486
:104DD0009011FDF7A7FAFBF71DFD40F2AC1040F271
:104DE0000804C2F20000C2F200049FED1E0ADFEDCB
:104DF0001E0AB2EE098A10302146B0EE481AFFF7BB
:104E000029F99FED1B9A40F2C850DFED180A04F112
:104E10000C01C2F20000B7EE000AB0EE491AFFF72B
:104E200019F940F26450DFED130A04F11801C2F2DF
:104E30000000B2EE040AB0EE481AFFF70BF940F298
:104E40000050DFED0D0A04F12401C2F20000B0EEC3
:104E5000480AB0EE491ABDEC048BBDE8B040FFF73C
:104E6000F9B800BFCDCCCC3D04599C423694834365
:104E70006666663F0712DC4200409C437CB50C002E
:104E80001D461646014601D0601E00E00020CDE917
:104E90000010064B6A462946304600F0DBF8002C2D
:104EA00002D0009A002111707CBD000083570008D9
:104EB00002E008C8121F08C1002AFAD170477047E3
:104EC000002001E001C1121F002AFBD17047000041
:104ED0002DE9FF5F82B00021DDE90430020DDDF82D
:104EE00040B0034318D044F61050A2F2FF324243C0
:104EF0001514119801281FD0A5EB0B00401C5FEA88
:104F0000000A4FF000064E4FDFF83891B046504689
:104F100015D5CAF1000413E0119801244AA3012811
:104F200001D16FEA0B010298119AC0E90031C0E982
:104F3000024206B0BDE8F09FCBF10000DFE7044677
:104F40000021404A491842EB0450CDE9001012E01C
:104F5000E00707D032463B4640464946FBF7F0F9AA
:104F60008046894632463B4610461946FBF7E8F92B
:104F700006460F466410002CEAD1DDE90401DDE9A4
:104F80000023BAF1000F06DAFBF7DAF942464B4686
:104F9000FBF7D6F905E0FBF745FA42464B46FBF72F
:104FA00041FA04460E460022284BFBF79BFB03D830
:104FB0004FF0FF30014607E00022254B20463146E6
:104FC000FBF717F9FBF775FB102409E0002C0ADB4F
:104FD0000A220023FBF7BEFA039B30321A55641EE7
:104FE00050EA0102F2D1641C039AC4F11103144483
:104FF000119A012A03D0012208430DD10AE0084387
:1050000004D000204FF0110B119072E7A3EB0B05B9
:105010006D1E0DE05B4504DD4FF0000205F101055A
:1050200004E003DA4FF00002A5F10105002AECD0FC
:1050300002981199C0E90231C0E9004579E7000002
:10504000000014400000F03F300000000000F0437A
:105050000000E03F2DE9FF4F95B09B46894606468C
:1050600000250FE2252877D100242746F84A0121A0
:10507000059400E0044316F8013F203B01FA03F0D9
:105080001042F7D130782A2811D06FF02F033078F2
:10509000A0F13002092A16D8059A44F0020402EB66
:1050A000820203EB42021044761C0590EFE759F8A8
:1050B000042B0592002A03DA504244F40054059070
:1050C00044F00204761C30782E2816D116F8010F11
:1050D00044F004042A280DD06FF02F023078A0F19C
:1050E0003003092B09D807EB870302EB4303C718EA
:1050F000761CF3E759F8047B761C30786C280FD0C7
:1051000006DC4C2817D068280DD06A2814D104E09A
:10511000742810D07A280FD10DE044F400140AE06E
:1051200044F4801401E044F440147278824202D1C5
:1051300004F58014761C761C307866280BD013DCBE
:10514000582877D009DC002875D04528F6D04628A5
:10515000F4D047281AD19DE118E0632835D064289F
:1051600079D0652812D195E1702873D008DC6728C2
:10517000F1D069286FD06E280DD06F2806D1B5E028
:1051800073282CD0752875D0782874D05A46179972
:1051900090476D1C75E1C4F30250022809D0032822
:1051A0000DD0D9F8001004280DD00D6009F10409C4
:1051B00067E1D9F80010EA17C1E90052F6E7D9F81B
:1051C00000100D80F2E70D70F0E719F8041B8DF860
:1051D000001000208DF80100EA46012003E059F894
:1051E00004AB4FF0FF3061074FF0000102D40DE037
:1051F00008F101018846B9420FDA8045F8DB1AF858
:1052000008100029F4D108E008F101018846814224
:10521000FADB1AF808100029F6D105985B46A0EBD6
:10522000080721463846179A00F094FA284400EB04
:10523000080507E04DE029E10DE01AF8010B5A4698
:1052400017999047B8F10108F7D25B4621463846D6
:10525000179A13E142E00A220092C4F302524FF07F
:10526000000A022A08D059F804CB032A4FEAEC714D
:105270000AD00DE029E02AE009F1070121F0070238
:10528000F2E802C1914609E00FFA8CFC4FEAEC719A
:10529000042A03D14FFA8CFC4FEAEC71002907DA9B
:1052A0000A460021DCF1000C61EB02012D2202E034
:1052B000220504D52B228DF80420012203E0E20709
:1052C00001D02022F7E7904659E00A2102E010229F
:1052D0000DE010214FF0000A00910BE010224FF07A
:1052E000000A44F004040827009203E008224FF06B
:1052F000000A0092C4F30252022A05D059F804CBE6
:105300000021032A08D009E009F1070121F0070272
:10531000F2E802C1914605E01FFA8CFC042A01D193
:105320000CF0FF0C4FF00008220728D5702806D09B
:10533000009B83F0100353EA0A0305D00EE04022DD
:105340008DF80420012208E05CEA010206D0302238
:105350008DF804208DF8050002229046009B83F012
:10536000080353EA0A030AD15CEA010201D1620789
:1053700005D530228DF804204FF001087F1E5828F3
:1053800004D034A003900EA802900DE036A0F9E7F7
:1053900053466046009AFBF7DDF884460398825C2A
:1053A0000298401E029002705CEA0100F0D102985F
:1053B00006A9081A00F1200A600702D524F48034F7
:1053C00000E00127574502DDA7EB0A0000E00020BE
:1053D00000EB0A01009005984144401A0590E00353
:1053E00006D45B462146179A059800F0B3F90544A8
:1053F000002706E001A85A46C05D179990476D1C2A
:105400007F1C4745F6DBE0030CD55B462146179A27
:10541000059800F09FF9054404E030205A4617999A
:1054200090476D1C0099481E00900029F5DC08E0AB
:10543000029802995A460078491C029117999047A0
:105440006D1CBAF10001AAF1010AF1DC65E100006E
:10545000092801003031323334353637383961624A
:10546000636465660000000030313233343536370E
:1054700038394142434445460000000000F058F9E5
:105480000544761C307800287FF4ECAD19B028462E
:10549000BDE8F08F620700D4062709F1070222F069
:1054A000070CFCE80223E14603F000485FEA080C21
:1054B00002D00FF2702C0DE05FEA045C02D50FF20F
:1054C000682C07E05FEAC47C02D00FF2602C01E098
:1054D000AFF2700C4FF0FF3823F00043CDF850C00E
:1054E00065280CD006DC452809D046281DD0472861
:1054F0003DD13DE0662818D067287ED138E00021F4
:10550000112F01DB112000E0781CCDE9000106A974
:105510000EA8FFF7DDFCDDE90F010E9A03910021D3
:10552000009207F1010A04914DE04FF0004000970E
:10553000CDE9011006A90EA8FFF7CAFCDDE90F02AC
:1055400003920E9B11990022DDF80CA000930492A7
:1055500011B9791C00EB010AB7EB0A0004D4C0F1C1
:10556000FF3007F1010A0490AAEB0700019044E024
:10557000012F00DA01270021112F01DD112000E0A9
:105580003846CDE9000106A90EA8FFF7A1FCDDE928
:105590000F010E9A0391002104910092BA4621074F
:1055A0000CD40399514500DA8A46BAF1010F05DDA2
:1055B000009AAAF10101515C302908D0B84202DA00
:1055C00010F1040F06DA0121CDE9011015E0AAF16E
:1055D0000101E9E7002805DC049901440491AAEBE4
:1055E000000102E0411C514500DD8A460499401A41
:1055F000401C01904FF000400290200704D4019815
:10560000504501DBCDF8048000208DF84F00029852
:105610000DF14F07B0F1004F25D02B200E900298CE
:105620004FF0020800280CDA404202902D200E9024
:1056300007E00A210298FAF777FF3031029007F865
:10564000011DB8F10001A8F10108F2DC0298002860
:10565000EFD1791E0E980870307800F0200040F0ED
:10566000450007F8020D12A8C01B00F107081498A6
:10567000007800B1012000EB0A01019801EBE07114
:1056800005984144401A401E0590E00306D45B464D
:105690002146179A059800F05DF8054414980078A3
:1056A00018B15A46179990476D1CE00324D55B4604
:1056B0002146179A059800F04DF805441CE004981F
:1056C000002807DBDDE90301884203DD0098405C28
:1056D000179901E0179930205A469047049805F130
:1056E0000105401C04900198401E019004D12E2019
:1056F0005A46179990476D1CBAF10001AAF1010AA8
:10570000DDDC05E017F8010B5A46179990476D1C30
:10571000B8F10001A8F10108F4DC5B462146179AB4
:105720000598ABE62D0000002B00000020000000D3
:105730002DE9F041044600251E461746880404D48E
:1057400005E039462020B0476D1C641EF9D5284677
:10575000BDE8F0812DE9F041044600251E46904643
:10576000C80301D5302700E02027880404D505E0D0
:1057700041463846B0476D1C641EF9D52846BDE841
:10578000F0814A68002A06D00A68531C0B6010702A
:105790004868401E4860704700000000000000009C
:1057A00001020304060708090000000001020304C7
:1057B00002030405060708090A0B0C0D0E0F101052
:1057C0000102030405060708090A0B0C0D0E0F1051
:1057D000F05700080000002058010000640700088E
:1057E0007058000858010020F0080000C04E000862
:1057F00042014210599EEF6340D3BC233E69524997
:105800009D396C09793B58913D411EA7E83D7917B8
:10581000B7513A17B7513B434040324133404043C0
:10582000F041724133803F33C04133803F33C04148
:1058300033604033404206B6C04100127A5031C353
:1058400064823F0534813FBC05823F2DB27DBFE0BD
:105850009C813F091B6EBF89D25E3B54E325BE533A
:1058600005233D5EBAC9BD014D043D46B6F3BD00FA
:040000050800018965
:00000001FF
